{
  "contractName": "CampaignFactory",
  "abi": [
    {
      "constant": true,
      "inputs": [
        {
          "name": "",
          "type": "uint256"
        }
      ],
      "name": "deployedCampaigns",
      "outputs": [
        {
          "name": "",
          "type": "address"
        }
      ],
      "payable": false,
      "stateMutability": "view",
      "type": "function"
    },
    {
      "constant": false,
      "inputs": [
        {
          "name": "brand",
          "type": "string"
        },
        {
          "name": "brief",
          "type": "string"
        },
        {
          "name": "target",
          "type": "uint256"
        },
        {
          "name": "hashtags",
          "type": "bytes32[]"
        },
        {
          "name": "gain",
          "type": "uint256"
        }
      ],
      "name": "createCampaign",
      "outputs": [],
      "payable": false,
      "stateMutability": "nonpayable",
      "type": "function"
    },
    {
      "constant": true,
      "inputs": [],
      "name": "getDeployedCampaigns",
      "outputs": [
        {
          "name": "",
          "type": "address[]"
        }
      ],
      "payable": false,
      "stateMutability": "view",
      "type": "function"
    }
  ],
  "bytecode": "0x608060405234801561001057600080fd5b506108ad806100206000396000f300608060405260043610610057576000357c0100000000000000000000000000000000000000000000000000000000900463ffffffff1680632a17b5821461005c578063339d50a5146101625780634acb9d4f146101cf575b600080fd5b34801561006857600080fd5b50610160600480360381019080803590602001908201803590602001908080601f0160208091040260200160405190810160405280939291908181526020018383808284378201915050505050509192919290803590602001908201803590602001908080601f016020809104026020016040519081016040528093929190818152602001838380828437820191505050505050919291929080359060200190929190803590602001908201803590602001908080602002602001604051908101604052809392919081815260200183836020028082843782019150505050505091929192908035906020019092919050505061023b565b005b34801561016e57600080fd5b5061018d6004803603810190808035906020019092919050505061043c565b604051808273ffffffffffffffffffffffffffffffffffffffff1673ffffffffffffffffffffffffffffffffffffffff16815260200191505060405180910390f35b3480156101db57600080fd5b506101e461047a565b6040518080602001828103825283818151815260200191508051906020019060200280838360005b8381101561022757808201518184015260208101905061020c565b505050509050019250505060405180910390f35b600085858585853361024b610508565b808060200180602001878152602001806020018681526020018573ffffffffffffffffffffffffffffffffffffffff1673ffffffffffffffffffffffffffffffffffffffff16815260200184810384528a818151815260200191508051906020019080838360005b838110156102ce5780820151818401526020810190506102b3565b50505050905090810190601f1680156102fb5780820380516001836020036101000a031916815260200191505b50848103835289818151815260200191508051906020019080838360005b83811015610334578082015181840152602081019050610319565b50505050905090810190601f1680156103615780820380516001836020036101000a031916815260200191505b50848103825287818151815260200191508051906020019060200280838360005b8381101561039d578082015181840152602081019050610382565b505050509050019950505050505050505050604051809103906000f0801580156103cb573d6000803e3d6000fd5b50905060008190806001815401808255809150509060018203906000526020600020016000909192909190916101000a81548173ffffffffffffffffffffffffffffffffffffffff021916908373ffffffffffffffffffffffffffffffffffffffff16021790555050505050505050565b60008181548110151561044b57fe5b906000526020600020016000915054906101000a900473ffffffffffffffffffffffffffffffffffffffff1681565b606060008054806020026020016040519081016040528092919081815260200182805480156104fe57602002820191906000526020600020905b8160009054906101000a900473ffffffffffffffffffffffffffffffffffffffff1673ffffffffffffffffffffffffffffffffffffffff16815260200190600101908083116104b4575b5050505050905090565b60405161036980610519833901905600608060405234801561001057600080fd5b50604051610369380380610369833981018060405281019080805182019291906020018051820192919060200180519060200190929190805182019291906020018051906020019092919080519060200190929190505050600081600160006101000a81548173ffffffffffffffffffffffffffffffffffffffff021916908373ffffffffffffffffffffffffffffffffffffffff1602179055506000808373ffffffffffffffffffffffffffffffffffffffff1673ffffffffffffffffffffffffffffffffffffffff168152602001908152602001600020905086816000019080519060200190610103929190610154565b508581600101908051906020019061011c929190610154565b508481600201819055508381600301908051906020019061013e9291906101d4565b5082816004018190555050505050505050610271565b828054600181600116156101000203166002900490600052602060002090601f016020900481019282601f1061019557805160ff19168380011785556101c3565b828001600101855582156101c3579182015b828111156101c25782518255916020019190600101906101a7565b5b5090506101d09190610227565b5090565b828054828255906000526020600020908101928215610216579160200282015b828111156102155782518290600019169055916020019190600101906101f4565b5b509050610223919061024c565b5090565b61024991905b8082111561024557600081600090555060010161022d565b5090565b90565b61026e91905b8082111561026a576000816000905550600101610252565b5090565b90565b60ea8061027f6000396000f300608060405260043610603f576000357c0100000000000000000000000000000000000000000000000000000000900463ffffffff168063481c6a75146044575b600080fd5b348015604f57600080fd5b5060566098565b604051808273ffffffffffffffffffffffffffffffffffffffff1673ffffffffffffffffffffffffffffffffffffffff16815260200191505060405180910390f35b600160009054906101000a900473ffffffffffffffffffffffffffffffffffffffff16815600a165627a7a72305820c055bf273af512f103005ac5bf89744217ee82ba2d7b6fa2b9fbcbaa2e29b1c50029a165627a7a72305820df2f0c6a2febcd5cf9e22fd9f829eb309a6f1ce61c6ba899bd7fcfd1d39bc4930029",
  "source": "pragma solidity ^0.4.24;\n\ncontract CampaignFactory {\n    address[] public deployedCampaigns;\n\n    function createCampaign(string brand, string brief, uint target, bytes32[] hashtags, uint gain) public {\n        address newCampaign = new Campaign(brand, brief, target, hashtags, gain, msg.sender);\n        deployedCampaigns.push(newCampaign);\n    }\n\n    function getDeployedCampaigns() public view returns (address[]) {\n        return deployedCampaigns;\n    }\n}\n\ncontract Campaign {\n    \n    struct User {\n        string      userID;\n        uint        reach;\n        string      hashtags;\n        bool        paid;\n    }\n    \n    struct Mission {\n        string      brand;\n        string      brief;\n        uint        target;\n        bytes32[]   hashtags;\n        uint        gain;\n        bool        complete;\n        mapping(address => User) users;\n    }\n    \n    mapping(address => Mission) missions;\n    address public manager;\n\n    modifier restricted() {\n        require(\n            msg.sender == manager,\n            \"Restricted to manager\"\n        );\n        _;\n    }\n\n    constructor (string _brand, string _brief, uint _target, bytes32[] _hashtags, uint _gain, address _creator) public {\n        manager = _creator;\n        Mission storage mission = missions[_creator];\n        mission.brand = _brand;\n        mission.brief = _brief;\n        mission.target = _target;\n        mission.hashtags = _hashtags;\n        mission.gain = _gain;\n    }\n}",
  "sourcePath": "/Users/mpham/Documents/Side_Project_03-InstagramFetch/ethereum/contracts/Campaigns.sol",
  "compiler": {
    "name": "solc",
    "version": "0.4.24+commit.e67f0147.Emscripten.clang"
  },
  "schemaVersion": "2.0.1",
  "updatedAt": "2018-12-14T15:27:08.801Z"
}