{
  "contractName": "CampaignFactory",
  "abi": [
    {
      "constant": true,
      "inputs": [
        {
          "name": "",
          "type": "uint256"
        }
      ],
      "name": "deployedCampaigns",
      "outputs": [
        {
          "name": "",
          "type": "address"
        }
      ],
      "payable": false,
      "stateMutability": "view",
      "type": "function"
    },
    {
      "constant": false,
      "inputs": [
        {
          "name": "brand",
          "type": "string"
        },
        {
          "name": "brief",
          "type": "string"
        },
        {
          "name": "target",
          "type": "uint256"
        },
        {
          "name": "hashtags",
          "type": "bytes32[]"
        },
        {
          "name": "gain",
          "type": "uint256"
        }
      ],
      "name": "createCampaign",
      "outputs": [],
      "payable": false,
      "stateMutability": "nonpayable",
      "type": "function"
    },
    {
      "constant": true,
      "inputs": [],
      "name": "getDeployedCampaigns",
      "outputs": [
        {
          "name": "",
          "type": "address[]"
        }
      ],
      "payable": false,
      "stateMutability": "view",
      "type": "function"
    }
  ],
  "bytecode": "0x608060405234801561001057600080fd5b50611090806100206000396000f300608060405260043610610057576000357c0100000000000000000000000000000000000000000000000000000000900463ffffffff1680632a17b5821461005c578063339d50a5146101625780634acb9d4f146101cf575b600080fd5b34801561006857600080fd5b50610160600480360381019080803590602001908201803590602001908080601f0160208091040260200160405190810160405280939291908181526020018383808284378201915050505050509192919290803590602001908201803590602001908080601f016020809104026020016040519081016040528093929190818152602001838380828437820191505050505050919291929080359060200190929190803590602001908201803590602001908080602002602001604051908101604052809392919081815260200183836020028082843782019150505050505091929192908035906020019092919050505061023b565b005b34801561016e57600080fd5b5061018d6004803603810190808035906020019092919050505061043c565b604051808273ffffffffffffffffffffffffffffffffffffffff1673ffffffffffffffffffffffffffffffffffffffff16815260200191505060405180910390f35b3480156101db57600080fd5b506101e461047a565b6040518080602001828103825283818151815260200191508051906020019060200280838360005b8381101561022757808201518184015260208101905061020c565b505050509050019250505060405180910390f35b600085858585853361024b610508565b808060200180602001878152602001806020018681526020018573ffffffffffffffffffffffffffffffffffffffff1673ffffffffffffffffffffffffffffffffffffffff16815260200184810384528a818151815260200191508051906020019080838360005b838110156102ce5780820151818401526020810190506102b3565b50505050905090810190601f1680156102fb5780820380516001836020036101000a031916815260200191505b50848103835289818151815260200191508051906020019080838360005b83811015610334578082015181840152602081019050610319565b50505050905090810190601f1680156103615780820380516001836020036101000a031916815260200191505b50848103825287818151815260200191508051906020019060200280838360005b8381101561039d578082015181840152602081019050610382565b505050509050019950505050505050505050604051809103906000f0801580156103cb573d6000803e3d6000fd5b50905060008190806001815401808255809150509060018203906000526020600020016000909192909190916101000a81548173ffffffffffffffffffffffffffffffffffffffff021916908373ffffffffffffffffffffffffffffffffffffffff16021790555050505050505050565b60008181548110151561044b57fe5b906000526020600020016000915054906101000a900473ffffffffffffffffffffffffffffffffffffffff1681565b606060008054806020026020016040519081016040528092919081815260200182805480156104fe57602002820191906000526020600020905b8160009054906101000a900473ffffffffffffffffffffffffffffffffffffffff1673ffffffffffffffffffffffffffffffffffffffff16815260200190600101908083116104b4575b5050505050905090565b604051610b4c80610519833901905600608060405234801561001057600080fd5b50604051610b4c380380610b4c833981018060405281019080805182019291906020018051820192919060200180519060200190929190805182019291906020018051906020019092919080519060200190929190505050600081600160006101000a81548173ffffffffffffffffffffffffffffffffffffffff021916908373ffffffffffffffffffffffffffffffffffffffff1602179055506000808373ffffffffffffffffffffffffffffffffffffffff1673ffffffffffffffffffffffffffffffffffffffff168152602001908152602001600020905086816000019080519060200190610103929190610171565b508581600101908051906020019061011c929190610171565b508481600201819055508381600301908051906020019061013e9291906101f1565b5082816004018190555060008160050160006101000a81548160ff0219169083151502179055505050505050505061028e565b828054600181600116156101000203166002900490600052602060002090601f016020900481019282601f106101b257805160ff19168380011785556101e0565b828001600101855582156101e0579182015b828111156101df5782518255916020019190600101906101c4565b5b5090506101ed9190610244565b5090565b828054828255906000526020600020908101928215610233579160200282015b82811115610232578251829060001916905591602001919060010190610211565b5b5090506102409190610269565b5090565b61026691905b8082111561026257600081600090555060010161024a565b5090565b90565b61028b91905b8082111561028757600081600090555060010161026f565b5090565b90565b6108af8061029d6000396000f30060806040526004361061006d576000357c0100000000000000000000000000000000000000000000000000000000900463ffffffff168063481c6a7514610072578063a4a1e263146100c9578063b0467deb146100f4578063db595b3b14610173578063ea73cbcc1461018a575b600080fd5b34801561007e57600080fd5b50610087610313565b604051808273ffffffffffffffffffffffffffffffffffffffff1673ffffffffffffffffffffffffffffffffffffffff16815260200191505060405180910390f35b3480156100d557600080fd5b506100de610339565b6040518082815260200191505060405180910390f35b34801561010057600080fd5b5061011f600480360381019080803590602001909291905050506103a9565b604051808473ffffffffffffffffffffffffffffffffffffffff1673ffffffffffffffffffffffffffffffffffffffff16815260200183815260200182151515158152602001935050505060405180910390f35b34801561017f57600080fd5b50610188610497565b005b34801561019657600080fd5b506101cb600480360381019080803573ffffffffffffffffffffffffffffffffffffffff1690602001909291905050506105cf565b604051808060200180602001878152602001806020018681526020018515151515815260200184810384528a818151815260200191508051906020019080838360005b8381101561022957808201518184015260208101905061020e565b50505050905090810190601f1680156102565780820380516001836020036101000a031916815260200191505b50848103835289818151815260200191508051906020019080838360005b8381101561028f578082015181840152602081019050610274565b50505050905090810190601f1680156102bc5780820380516001836020036101000a031916815260200191505b50848103825287818151815260200191508051906020019060200280838360005b838110156102f85780820151818401526020810190506102dd565b50505050905001995050505050505050505060405180910390f35b600160009054906101000a900473ffffffffffffffffffffffffffffffffffffffff1681565b600080600080600160009054906101000a900473ffffffffffffffffffffffffffffffffffffffff1673ffffffffffffffffffffffffffffffffffffffff1673ffffffffffffffffffffffffffffffffffffffff1681526020019081526020016000209050806006015491505090565b600080600080600080600160009054906101000a900473ffffffffffffffffffffffffffffffffffffffff1673ffffffffffffffffffffffffffffffffffffffff1673ffffffffffffffffffffffffffffffffffffffff168152602001908152602001600020905080600701600086815260200190815260200160002060000160009054906101000a900473ffffffffffffffffffffffffffffffffffffffff168160070160008781526020019081526020016000206001015482600701600088815260200190815260200160002060020160009054906101000a900460ff16935093509350509193909250565b6000806000600160009054906101000a900473ffffffffffffffffffffffffffffffffffffffff1673ffffffffffffffffffffffffffffffffffffffff1673ffffffffffffffffffffffffffffffffffffffff16815260200190815260200160002090506060604051908101604052803373ffffffffffffffffffffffffffffffffffffffff168152602001600081526020016000151581525081600701600083600601600081548092919060010191905055815260200190815260200160002060008201518160000160006101000a81548173ffffffffffffffffffffffffffffffffffffffff021916908373ffffffffffffffffffffffffffffffffffffffff1602179055506020820151816001015560408201518160020160006101000a81548160ff02191690831515021790555090505050565b606080600060606000806105e1610843565b6000808973ffffffffffffffffffffffffffffffffffffffff1673ffffffffffffffffffffffffffffffffffffffff16815260200190815260200160002060e06040519081016040529081600082018054600181600116156101000203166002900480601f0160208091040260200160405190810160405280929190818152602001828054600181600116156101000203166002900480156106c45780601f10610699576101008083540402835291602001916106c4565b820191906000526020600020905b8154815290600101906020018083116106a757829003601f168201915b50505050508152602001600182018054600181600116156101000203166002900480601f0160208091040260200160405190810160405280929190818152602001828054600181600116156101000203166002900480156107665780601f1061073b57610100808354040283529160200191610766565b820191906000526020600020905b81548152906001019060200180831161074957829003601f168201915b5050505050815260200160028201548152602001600382018054806020026020016040519081016040528092919081815260200182805480156107cc57602002820191906000526020600020905b815460001916815260200190600101908083116107b4575b50505050508152602001600482015481526020016005820160009054906101000a900460ff161515151581526020016006820154815250509050806000015181602001518260400151836060015184608001518560a001518595508494508292509650965096509650965096505091939550919395565b60e06040519081016040528060608152602001606081526020016000815260200160608152602001600081526020016000151581526020016000815250905600a165627a7a7230582051df06bda0d3e646d12b13fd985207fc91e59601fe22e03a8a642f3848e56d080029a165627a7a723058208694fe47d35fb5cba0102fcf0e444d627f530f13b69e5dfc8e53a8ce837652460029",
  "source": "pragma solidity ^0.4.24;\n\ncontract CampaignFactory {\n    address[] public deployedCampaigns;\n\n    function createCampaign(string brand, string brief, uint target, bytes32[] hashtags, uint gain) public {\n        address newCampaign = new Campaign(brand, brief, target, hashtags, gain, msg.sender);\n        deployedCampaigns.push(newCampaign);\n    }\n\n    function getDeployedCampaigns() public view returns (address[]) {\n        return deployedCampaigns;\n    }\n}\n\ncontract Campaign {\n    \n    struct User {\n        address     userAddress;\n        uint        reach;\n        bool        paid;\n    }\n    \n    struct Mission {\n        string      brand;\n        string      brief;\n        uint        target;\n        bytes32[]   hashtags;\n        uint        gain;\n        bool        complete;\n        uint        usersCount;\n        mapping(uint => User) users;\n    }\n    \n    mapping(address => Mission) missions;\n    address public manager;\n\n    modifier restricted() {\n        require(\n            msg.sender == manager,\n            \"Restricted to manager\"\n        );\n        _;\n    }\n\n    constructor (string _brand, string _brief, uint _target, bytes32[] _hashtags, uint _gain, address _creator) public {\n        manager = _creator;\n        Mission storage mission = missions[_creator];\n        mission.brand = _brand;\n        mission.brief = _brief;\n        mission.target = _target;\n        mission.hashtags = _hashtags;\n        mission.gain = _gain;\n        mission.complete = false;\n    }\n    \n    function getMission(address _creator) public view returns (string brand, string brief, uint target, bytes32[] hashtags, uint gain, bool complete) {\n        Mission memory p = missions[_creator];\n        return (p.brand, p.brief, p.target, p.hashtags, p.gain, p.complete);\n    }\n    \n    function apply() public {\n        Mission storage mission = missions[manager];\n        mission.users[mission.usersCount++] = User({userAddress: msg.sender, reach: 0, paid: false});\n    }\n\n    function getUser(uint index) public view returns (address userAddress, uint reach, bool paid) {\n        Mission storage m = missions[manager];\n        return (m.users[index].userAddress, m.users[index].reach, m.users[index].paid);\n    }\n\n    function getUsersCount() public view returns (uint usersCount) {\n        Mission storage m = missions[manager];\n        return (m.usersCount);\n    }\n}",
  "sourcePath": "/Users/mpham/Documents/Side_Project_03-Drizzle/ethereum/contracts/Campaigns.sol",
  "compiler": {
    "name": "solc",
    "version": "0.4.24+commit.e67f0147.Emscripten.clang"
  },
  "schemaVersion": "2.0.1",
  "updatedAt": "2018-12-18T17:06:54.183Z"
}